:020000040800F2
:10000000B0060020890100089101000827040008BB
:100010009501000897010008990100080000000000
:100020000000000000000000000000009B0100082C
:100030009D010008000000009F010008A1010008C8
:10004000A3010008A3010008A3010008A301000800
:10005000A3010008A3010008A3010008A3010008F0
:10006000A3010008A3010008A3010008A3010008E0
:10007000A3010008A3010008A3010008A3010008D0
:10008000A3010008A3010008A3010008A3010008C0
:10009000A3010008A3010008A3010008A3010008B0
:1000A000A3010008A3010008A3010008A3010008A0
:1000B000A30100080D0700083D070008A301000880
:1000C000A3010008A3010008A3010008A301000880
:1000D000A3010008A3010008A3010008E10800082B
:1000E000A3010008A3010008A301000800F002F822
:1000F00000F03AF80AA090E8000C82448344AAF188
:100100000107DA4501D100F02FF8AFF2090EBAE885
:100110000F0013F0010F18BFFB1A43F0010318473B
:100120001C1D00003C1D0000103A24BF78C878C197
:10013000FAD8520724BF30C830C144BF04680C60ED
:10014000704700000023002400250026103A28BF35
:1001500078C1FBD8520728BF30C148BF0B60704739
:100160001FB51FBD10B510BD00F031F81146FFF7E7
:10017000F7FF00F097FF00F04FF803B4FFF7F2FF2E
:1001800003BC00F057F800000948804709480047C1
:10019000FEE7FEE7FEE7FEE7FEE7FEE7FEE7FEE737
:1001A000FEE7FEE704480549054A064B7047000094
:1001B000AD060008ED000008B0000020B0060020E9
:1001C000B0020020B00200207047704770477546AB
:1001D00000F02CF8AE4605006946534620F00700B3
:1001E000854618B020B5FFF7DDFFBDE820404FF091
:1001F00000064FF000074FF000084FF0000B21F011
:100200000701AC46ACE8C009ACE8C009ACE8C009DD
:10021000ACE8C0098D46704710B50446AFF30080C6
:100220002046BDE81040FFF7A8BF00000048704717
:100230005000002001491820ABBEFEE72600020056
:1002400070472DE9F04102460025002600200023DA
:100250000024002791F803C00CF00F0591F803C0AB
:100260000CF0100CBCF1000F03D091F802C04CEA66
:10027000050591F800C0BCF1000F31D014680020D2
:100280002BE04FF0010C0CFA00F3B1F800C00CEABF
:1002900003069E4220D183004FF00F0C0CFA03F7A7
:1002A000BC4305FA03FC4CEA040491F803C0BCF11A
:1002B000280F06D14FF0010C0CFA00FCC2F814C054
:1002C0000AE091F803C0BCF1480F05D14FF0010CD2
:1002D0000CFA00FCC2F810C0401C0828D1D31460EE
:1002E000B1F800C0BCF1FF0F34DD546800202EE0EF
:1002F00000F1080C4FF0010808FA0CF3B1F800C047
:100300000CEA03069E4221D183004FF00F0C0CFA39
:1003100003F7BC4305FA03FC4CEA040491F803C05C
:10032000BCF1280F05D100F1080C08FA0CF8C2F84E
:10033000148091F803C0BCF1480F07D100F1080CFC
:100340004FF0010808FA0CF8C2F81080401C082889
:10035000CED35460BDE8F081F0B50A4600230024F6
:100360000021002500F00046B6F1004F02D11D4EDD
:10037000F16901E01B4E7168C0F3034583B200F4DC
:100380004016B6F5401F08D121F07061154E766811
:1003900026F07066134F7E6012E000F48016B6F50A
:1003A000801F06D1032606FA05F4A14341F07061CF
:1003B00006E0460D360103FA06F6B14341F07061DE
:1003C00022B1460D360103FA06F6314300F000462D
:1003D000B6F1004F02D1034EF16101E0014E7160B0
:1003E000F0BD0000000001400246002093680B4071
:1003F0000BB1012000E00020704702460020D368C6
:100400000B400BB1012000E0002070474FF6FF7158
:100410000180022181700421C17070470AB101611D
:1004200000E04161704700BFFEE7000070B50021A9
:1004300000230F22C47804B3154C246804F4E0644C
:10044000C4F5E064210AC1F10403CA40447804FA07
:1004500003F184781440214309010E4C0678A1551C
:10046000047804F01F050124AC4005786D11AD003F
:1004700005F1E025C5F8004109E0047804F01F0506
:100480000124AC40044D0678761145F8264070BD35
:100490000CED00E000E400E080E100E002490143EF
:1004A000024A1160704700000000FA050CED00E000
:1004B00029B1064AD2690243044BDA6104E0034AD7
:1004C000D2698243014BDA6170470000001002409C
:1004D00029B1064A92690243044B9A6104E0034A37
:1004E00092698243014B9A617047000000100240FC
:1004F00030B500210022002400232D4D6D6805F049
:100500000C0121B1042905D0082923D105E0294D8A
:10051000056022E0274D05601FE0254D6D6805F45C
:100520007012234D6D6805F48034022505EB92426C
:100530001CB9214D554305600BE01D4D6D6805F458
:1005400000351DB11C4D5543056002E0194D554362
:10055000056002E0174D056000BF00BF144D6D68D7
:1005600005F0F0010909154D6B5C0568DD4045603B
:100570000F4D6D6805F4E061090A104D6B5C45682C
:10058000DD4085600A4D6D6805F46051C90A0B4D68
:100590006B5C4568DD40C560054D6D6805F4404104
:1005A000890B074D6B5CC568B5FBF3F5056130BD84
:1005B0000010024000127A0000093D0000000020F7
:1005C0001000002010B500F001F810BD0CB500209F
:1005D000019000903348006840F480303149086051
:1005E00000BF3048006800F4003000900198401CC3
:1005F0000190009818B90198B0F5A06FF1D1294881
:10060000006800F4003010B10120009001E00020EB
:1006100000900098012843D12348006840F0100062
:10062000214908600846006820F003000860084679
:10063000006840F0020008601A48406819494860A4
:100640000846406848600846406840F4806048605A
:100650000846406820F47C1048600846406840F432
:10066000E81048600846006840F08070086000BFED
:100670000C48006800F000700028F9D00948406874
:1006800020F00300074948600846406840F0020037
:10069000486000BF0348406800F00C000828F9D10A
:1006A0000CBD0000001002400020024010B51348AD
:1006B000006840F001001149086008464068104990
:1006C00008400E494860084600680E4908400B493A
:1006D00008600846006820F48020086008464068EA
:1006E00020F4FE0048604FF41F008860FFF76AFFA7
:1006F0004FF000600449086010BD00000010024087
:100700000000FFF8FFFFF6FE08ED00E010B5012144
:10071000084800F078F860B10121064800F064F85C
:1007200005480088002804DD03480088401E02496F
:10073000088010BD000400404000002010B50121D9
:100740001F4800F060F8002839D001211C4800F053
:100750004BF81C480068A0B11B48007808B901207C
:1007600000E0002018490870084602781748018800
:100770001748FFF753FE13480068401E11490860F0
:1007800015E014480078012802D100F071FF0EE056
:1007900011480078012803D1022000F069FF06E02B
:1007A0000E480078012802D1032000F061FF0C48B8
:1007B000007820B10B480088401C0A49088010BD11
:1007C00000080040380000203E0000203C000020CF
:1007D000000C01402F0000203000002031000020DC
:1007E0003500002036000020CA430282704721B144
:1007F000028842F00102028004E002884FF6FE7394
:100800001A400280704730B50246002000230024C1
:10081000158A05EA0103958905EA010413B10CB1B3
:10082000012000E0002030BD1AB183890B43838191
:1008300002E083898B438381704700000022028895
:100840001D4B98420ED01D4B98420BD0B0F1804FFB
:1008500008D01B4B984205D01A4B984202D01A4B35
:10086000984204D14FF68F731A404B881A43174BA6
:10087000984207D0164B984204D04FF6FF431A40D7
:10088000CB881A4302808B8883850B8803850A4BAB
:1008900098420BD0094B984208D00E4B984205D095
:1008A0000D4B984202D00D4B984201D10B7A038632
:1008B0000123838270470000002C01400034014076
:1008C0000004004000080040000C00400010004000
:1008D0000014004000400140004401400048014035
:1008E00008B540F224411B4800F066F8B0B140F270
:1008F0002441184800F038F8164800880090154840
:10090000001D0088009014480078144908700020E9
:10091000114908700120124908701AE040F225516F
:100920000C4800F049F8A0B140F22551094800F008
:100930001BF80948007840280BDA064800F0F8F860
:10094000C1B2054802780078401C034B1870054876
:10095000815408BD004800402900002028000020E4
:100960001D0000204400002010B50022002340F6A6
:100970006A14A14200D100BF0A1201249440A3B21C
:10098000DC43048010BD21B1828942F4005282818F
:1009900004E082894DF6FF731A4082817047024657
:1009A0000020B1F5007F00D100BF13880B400BB1D0
:1009B000012000E00020704770B5024600240023AB
:1009C0000025002040F66A16B14200D100BFC1F3F5
:1009D000421501F01F03012606FA03F3012D02D18F
:1009E0009689334006E0022D02D1168A334001E099
:1009F000968A33400C12012606FA04F41688344015
:100A000013B10CB1012000E0002070BDF0B5034629
:100A1000002400260025002040F66A17B94200D1C4
:100A200000BF1846C1F3421401F01F06012707FA60
:100A300006F5012C01D10C3004E0022C01D110305C
:100A400000E014301AB107682F43076002E007681E
:100A5000AF430760F0BD00002DE9F04786B00546C2
:100A60000E460024A24600BFA1460027B08900B16F
:100A700000BF2F462C8A4CF6FF700440F0880443D8
:100A80002C82AC894EF6F3100440B08831890843BB
:100A9000718908430443AC81AC8A4FF6FF4004409F
:100AA000B0890443AC8201A8FFF722FD1F488742AA
:100AB00002D1DDF810A001E0DDF80CA0A88900F457
:100AC000004040B10AEBCA0000EB0A10316849004F
:100AD000B0FBF1F807E00AEBCA0000EB0A1031683E
:100AE0008900B0FBF1F86420B8FBF0F004012009A4
:100AF000642101FB1089A88900F4004040B1322034
:100B000000EBC900B0FBF1F000F00700044308E07F
:100B1000322000EB09106421B0FBF1F000F00F006F
:100B200004432C8106B0BDE8F08700000038014086
:100B300001468888C0F308007047C1F3080282802C
:100B400070474FF41651016000218180C1800181FE
:100B50000C21418100218181704730B504460D464A
:100B60000021002200BF02E0A05C0144521CAA4206
:100B7000FADB0B46C81701EB10600012A1EB002056
:100B8000C0B230BD002107E042F6E06100BF0A1E9E
:100B9000A1F1010399B2FAD1021EA0F1010398B2AA
:100BA000F2D1704710B5002440211F48FFF71CFC0C
:100BB00004434FF400411D48FFF716FC44EA40008F
:100BC000C4B24FF480411948FFF70EFC44EA80009C
:100BD000C4B24FF400511548FFF706FC44EAC000C8
:100BE000C4B24FF480511148FFF7FEFB44EA0010F5
:100BF000C4B24FF400610D48FFF7F6FB44EA401021
:100C0000C4B24FF480610948FFF7EEFB44EA80105C
:100C1000C4B24FF400710548FFF7E6FB44EAC01088
:100C2000C4B2204610BD0000001001400014014075
:100C300010B500244FF400511548FFF7DEFB0443C4
:100C40004FF480411248FFF7D8FB44EA4000C4B299
:100C50004FF400410E48FFF7D0FB44EA8000C4B2D5
:100C60004FF480510A48FFF7C8FB44EAC000C4B201
:100C700004210848FFF7C1FB44EA0010C4B2022176
:100C80000448FFF7BAFB44EA4010C4B2204610BD46
:100C9000000C01400008014008B53020ADF800000C
:100CA00004208DF8030003208DF80200694698485F
:100CB000FFF7C7FA0120ADF8000004208DF803000B
:100CC00003208DF8020069469148FFF7BAFA4FF405
:100CD000C070ADF8000010208DF8030003208DF8DF
:100CE000020069468B48FFF7ACFA01218A48FFF7FA
:100CF00033FB4FF48060ADF8000018208DF803003E
:100D000001208DF8020069468448FFF79AFA4FF4F3
:100D10000060ADF8000004208DF8030001208DF87C
:100D2000020069467D48FFF78CFA4FF4C050ADF8D9
:100D3000000014208DF8030003208DF8020069469E
:100D40007348FFF77EFA2020ADF8000014208DF8DC
:100D5000030003208DF8020069467148FFF771FA1D
:100D60004FF4C060ADF8000014208DF8030003209C
:100D70008DF8020069466648FFF763FA4020ADF837
:100D8000000014208DF8030003208DF8020069464E
:100D90006348FFF756FA4FF48070ADF80000142056
:100DA0008DF8030003208DF8020069465848FFF7CC
:100DB00048FA8020ADF8000014208DF803000320CD
:100DC0008DF8020069465648FFF73BFA4FF4007071
:100DD000ADF8000014208DF8030003208DF8020008
:100DE00069464E48FFF72DFA4020ADF80000042078
:100DF0008DF8030003208DF8020069464748FFF78D
:100E000020FA4FF46040ADF8000004208DF8030094
:100E100003208DF8020069463E48FFF712FA4FF4AE
:100E2000F050ADF8000004208DF8030003208DF889
:100E3000020069463748FFF704FA0620ADF80000C3
:100E400010208DF8030003208DF802006946304819
:100E5000FFF7F7F94FF47040ADF8000014208DF85B
:100E6000030003208DF8020069462D48FFF7E9F9D9
:100E70004FF48070ADF8000010208DF803000320BF
:100E80008DF8020069462548FFF7DBF90122802131
:100E90002048FFF7C3FA012211021E48FFF7BEFAED
:100EA00000224FF400511E48FFF7B8FA00224FF419
:100EB00080411B48FFF7B2FA00224FF40041184866
:100EC000FFF7ACFA00224FF480511548FFF7A6FA5D
:100ED000002204210E48FFF7A1FA002202210C484B
:100EE000FFF79CFA00224FF480710C48FFF796FA46
:100EF000012211030648FFF791FA012291020448EA
:100F0000FFF78CFA012211020148FFF787FA08BDAA
:100F100000080140001401401000140000100140BE
:100F2000000C014010B5012000F0A2FB022000F0EF
:100F30009FFB032000F09CFB002008490870084933
:100F4000087008490870084908700849087008497D
:100F50000880084908600849088010BD1C0000206E
:100F60003200002033000020340000203500002033
:100F700036000020380000203C00002010B53F481B
:100F8000008800B110BD4FF47A703C4908803C489D
:100F9000007808B9012000E00020394908700846AF
:100FA000027880213748FFF739FA20213648FFF7C9
:100FB0001BFA044610213448FFF716FA04EB4000F0
:100FC00032490870FFF7EEFD31490870FFF730FE37
:100FD000304908702E4800782F490978884216D188
:100FE0002E48007800F03F002A49097888420ED147
:100FF000274800781A2806D12648007818B9032017
:101000002749087006E002202549087002E0022006
:101010002349087022480078012807D1184802782F
:101020004FF480711748FFF7F9F925E01C48007864
:1010300002280AD1124802784FF480711148FFF754
:10104000EDF964200D49088016E015480078032862
:1010500012D10B48007820B14FF4FA70074908808C
:1010600003E04FF4FA6005490880054802784FF420
:1010700080710448FFF7D2F900BF83E740000020E9
:101080004200002000140140000801401F00002021
:101090001700002018000020150000201600002076
:1010A0001400002000BF00F097FBFFF7F5FD00F0F3
:1010B0009DFB00F0CBFB00F011FD012000F0D8FA01
:1010C000022000F0D5FA032000F0D2FA0A20FFF740
:1010D00059FD20210F48FFF787F9044610210D48DC
:1010E000FFF782F904EB40000B49087010E0FFF7AE
:1010F00045FF0A48007820B100200849087000F038
:10110000D3FB0748007818B100F00CF800F086F91E
:10111000EDE70000000801401F0000201D00002036
:101120001C0000202DE9F04100246048007808B13F
:10113000BDE8F0810A20FFF725FDFFF733FD5C498C
:101140000870FFF775FD5B4908705948007800F09A
:10115000C9F840215848FFF747F928B14FF400413A
:101160005648FFF741F928BB4FF480415348FFF739
:101170003BF928B14FF400515048FFF735F9C8B991
:101180004FF480514D48FFF72FF905464FF40061A9
:101190004A48FFF729F905444FF480614748FFF7B3
:1011A00023F905444FF400714448FFF71DF9284422
:1011B000012802DDFFF7B6FE76E04148007841499C
:1011C0000978884207D042F6E0623D480178012064
:1011D00000F0C6F868E03C4800783C49097888424D
:1011E00007D042F6E06238480178022000F0B8F8F3
:1011F0005AE03748007837490978884245D0364860
:10120000007898BB3348007848B90120324908700B
:101210004FF47A620121032000F0A2F844E0032099
:101220002D4908702A4909782A4A1278881A00F04C
:10123000F0FC21F0004107460022284B00F000FDA1
:10124000054600F0B7FC044621480078214909789A
:10125000884205DD22460121032000F081F823E0C9
:1012600022460021032000F07BF81DE0FFE71A482A
:101270000078012818D10220174908704FF47A62CB
:101280000021032000F06CF80EE00A4800781449B1
:101290000978884206D01248007800F05BFAFFF720
:1012A00041FE01E0FFF73EFE00BF41E732000020B3
:1012B0001700002018000020001001400014014019
:1012C000190000202C0000201A0000202D00002012
:1012D0001B0000202E000020330000200040AF4003
:1012E0001600002003211B4A11701B4A11700021B7
:1012F0001A4A117000F0010111B10021154A117054
:10130000C0F3400111B10121124A1170C0F38001F4
:1013100011B10021104A1170C0F3C00111B10121B7
:101320000D4A1170C0F3001111B104210B4A117064
:10133000C0F3401111B10521084A1170C0F38011AA
:1013400011B10621054A1170C10911B10721034AE3
:10135000117070472C0000202D0000202E0000206E
:1013600070B504460D461646234806600020234902
:101370000870012022490870012C04D0022C14D0DE
:10138000032C36D123E001201E49087020201E497D
:1013900008802A4681011D48FFF740F800224FF4DB
:1013A00080511A48FFF73AF823E0012018490870E5
:1013B0004020154908802A46C1001448FFF72EF83E
:1013C00000224FF480611148FFF728F811E0012056
:1013D0001049087080200C4908802A4681000E4878
:1013E000FFF71CF800224FF480710848FFF716F849
:1013F00000BF00BF70BD0000380000203400002096
:10140000320000202F0000203C0000200008014096
:101410003000002031000020001001402DE9F0478D
:101420000025FFF7BFFB8149087008460078FFF7E9
:1014300059FF7F480078012826D17E48007818BBE4
:101440007D4800787D490978884218D10A20FFF745
:1014500099FBFFF7A7FB7549087008460078FFF76E
:1014600041FF754800787549097888420CD1012000
:10147000704908704FF448707149086004E0704882
:10148000006808B9FFF74EFD6E480078012826D1A4
:101490006848007818BB6C4800786C490978884225
:1014A00018D10A20FFF76EFBFFF77CFB5F4908703D
:1014B00008460078FFF716FF63480078634909780B
:1014C00088420CD101205B4908704FF448705C4998
:1014D000086004E05A48006808B9FFF723FD5C483B
:1014E0000078012827D15B480078052823D05A4886
:1014F00000785A49097888421ED156480078042855
:101500001AD00A20FFF73EFBFFF74CFB4749087053
:1015100008460078FFF7E6FE4F4800784F49097803
:101520008842DFD104204B49087000204C490880D4
:1015300001204C49087076E04748007848BB454890
:101540000078042825D10A20FFF71CFBFFF72AFBAF
:101550003649087008460078FFF7C4FE3E48007818
:10156000002860D105203B4908704FF400713E48C7
:10157000FEF743FF08B9012000E000200646384886
:10158000048804EBD470421031460320FFF7E8FED4
:1015900049E031480078B0B32E480078012803D0E4
:1015A0002C480078022835D10A20FFF7EBFAFFF724
:1015B000F9FA1E49087008460078FFF793FE0320E9
:1015C000244908702448007818B324490978224A2D
:1015D0001278881A00F01DFB21F00041804600229D
:1015E000224B00F02DFB064600F0E4FA05461B48AE
:1015F000007819490978884206DD2A46012103202E
:10160000FFF7AEFE0FE005E02A4600210320FFF7BA
:10161000A7FE08E00F480078022804DD08480068AB
:1016200008B9FFF77FFCBDE8F08700001700002035
:101630002F000020340000202C0000201900002082
:1016400038000020300000202D0000201A0000206B
:1016500031000020330000202E0000201B0000205D
:101660003600002035000020001001400040AF404F
:1016700010B50446002013490870012C04D0022C38
:101680000BD0032C1BD111E000200F490870012260
:1016900011030E48FEF7C2FE11E000200C4908704D
:1016A000012291020948FEF7B9FE08E0002009492D
:1016B0000870012211020548FEF7B0FE00BF00BF0E
:1016C00010BD0000320000202F0000200008014063
:1016D000300000203100002002211B4A11701B4AFB
:1016E00011701B4A117000F0010111B10021164A5E
:1016F0001170C0F3400111B10121134A1170C0F300
:10170000800111B10021114A1170C0F3C00111B163
:1017100001210E4A1170C0F3001111B104210C4ACD
:101720001170C0F3401111B10521094A1170C0F3C5
:10173000801111B10621064A1170C10911B10721AA
:10174000034A117070470000190000201A000020A1
:101750001B00002010B5044604F001024FF40051B4
:101760001B48FEF75BFE1420FFF70CFAC4F340029F
:101770004FF480411648FEF751FE1420FFF702FA9D
:10178000C4F380024FF400411148FEF747FE1420D5
:10179000FFF7F8F9C4F3C0024FF480510C48FEF78C
:1017A0003DFE1420FFF7EEF9C4F3001204210948AE
:1017B000FEF734FE1420FFF7E5F9C4F340120221CE
:1017C0000448FEF72BFE1420FFF7DCF910BD0000E3
:1017D000000C01400008014010B501217D20FEF7FA
:1017E00077FE4FF4E060FEF759FE10BD1FB50121F2
:1017F0000220FEF75DFE40F2E730ADF8080047201A
:10180000ADF804000020ADF80A00ADF8060001A90B
:101810000D48FFF713F8012211460B48FFF704F8B3
:101820001D208DF8000000208DF8010005208DF8A6
:10183000020001208DF803006846FEF7F7FD012144
:101840000148FEF7D4FF1FBD000400401FB5012171
:101850000420FEF72DFE4FF47A70ADF80800472003
:10186000ADF804000020ADF80A00ADF8060001A9AB
:101870000C48FEF7E3FF012211460A48FEF7D4FFA9
:101880001E208DF8000000208DF8020001208DF848
:1018900003006846FEF7CAFD01210248FEF7A7FFD4
:1018A0001FBD00000008004010B500247F480078EC
:1018B0007F4908707F480078022847D17E48007829
:1018C000A12813D17C484078A1280FD1774800780F
:1018D00001280BD1A1217948FFF72FF900BF802102
:1018E0007648FFF75CF80028F9D0D2E0724800781B
:1018F000A22813D170484078A2280FD16B480078F5
:1019000002280BD1A2216D48FFF717F900BF8021F3
:101910006A48FFF744F80028F9D0BAE06648007832
:10192000A328E2D164484078A328DED15F4800783C
:101930000328DAD1A3216148FFF7FFF800BF802117
:101940005E48FFF72CF80028F9D0A2E0594800784B
:10195000062846D15848407854490978884240D1F1
:1019600055480078544949780844534989780844CF
:101970005149C97808445049097908444E49497980
:1019800088422ED14C48807804282AD14C480078CF
:10199000474948704B48007818B1FF20487188715A
:1019A00007E0FFF7FFF842494871FFF741F9404966
:1019B000887107213E48FFF7D0F83D49C8710024DF
:1019C0000CE03B48015D3D48FFF7B7F800BF8021C0
:1019D0003A48FEF7E4FF0028F9D0641C082CF0DB3D
:1019E00057E034480078082853D1334840782F49CD
:1019F000097888424DD107212F48FFF7AEF82E49CC
:101A0000C979884245D12C488078012841D10024E9
:101A10000CE02948015D2948FFF78FF800BF8021BD
:101A20002648FEF7BCFF0028F9D0641C082CF0DB28
:101A3000FFF778FA20480078214908701E4840795D
:101A4000214908701C48807920490870FFF7AAF8DE
:101A50001F490870FFF7ECF81E4908701A48007813
:101A6000FFF73AFE14480078042803D012480078A3
:101A7000052805D1012211021748FEF7CFFC05E029
:101A800000224FF480711448FEF7C8FC01200D4974
:101A9000087000200849087048708870C870087184
:101AA00048718871C8710872487210BD1F0000200B
:101AB00020000020280000204400002000480040B2
:101AC0001E0000201C000020150000201600002031
:101AD00017000020180000200010014000B587B05A
:101AE00001211020FEF7F4FC01218804FEF7E0FC40
:101AF00001210846FEF7ECFC01212B48FEF72CFCE7
:101B000006A8FEF783FC4FF48060ADF8180018209B
:101B10008DF81B0001208DF81A0006A92348FEF756
:101B200090FB4FF40060ADF8180004208DF81B0006
:101B300001208DF81A0006A91C48FEF782FB02A8B6
:101B4000FEF7FFFF4FF4E13002900020ADF80C00EB
:101B5000ADF80E00ADF810000C20ADF8120000201A
:101B6000ADF8140002A91248FEF776FF012240F2F8
:101B700025510F48FEF74AFF012240F224410C484C
:101B8000FEF744FF01210A48FEF7FDFE27208DF8ED
:101B9000040001208DF806008DF8070001A8FEF76B
:101BA00045FC07B000BD000010001400001001400B
:101BB000004800404FEA41034FEA5353A3F58063C6
:101BC000D3F11E03C8BFD3F1210C0CDD4FF000424E
:101BD00042EAC12242EA505232FA03FC8CEAE17C2A
:101BE000ACEBE1707047102BC4BF0020704703F5C9
:101BF000787CBCF1FF3F04D06FF0004282EA210004
:101C0000704770B500F0C6F84992248000207047F4
:101C1000F2E710F0004248BF4042B0FA80F310FAF9
:101C200003F10AD0C3F11D0303F580634FEA41506D
:101C300002EB035202EBD12170474FF000007047D6
:101C4000DFF848C170B51CEA111E1EBF1CEA13154F
:101C50009EEA0C0F95EA0C0F00F06F8081EA0304F6
:101C600023EA4C134EEAD47E21EA4C1141F4801150
:101C700043F48013AE44A1FB024CA0FB0365AEF11C
:101C80007F7E361955EB0C05A1FB034C4CF100038C
:101C9000A0FB021C16EB0C06654153F10003094240
:101CA00018BF46F0010613F4007F0BD14FEA033151
:101CB0004FEA0530340341EA155140EA16506FF0FF
:101CC00003020AE04FEAC3214FEAC520F40241EAC9
:101CD000555140EA56506FF0020202EB2E4201EBE2
:101CE000025585EACE710AD05FEA440C18BF24F091
:101CF000004450F1000041F1000120EAD47040F2AC
:101D0000FE7C624500D270BDA84214BF4FF08044F3
:101D10004FF04044002E08BF0024BEF1806FA8BFE2
:101D2000A1F1C041BDE8704080F282804FF0000018
:101D300001F1C04101F0004170479EEA0C0F0CEA2E
:101D4000131518BF95EA0C0F06D04FF0000081EA7A
:101D5000030E0EF0004170BD00F01CF88900013E3A
:101D600000F007B800F009B84FEA430C5FEA5C5C8A
:101D700008D081EA030100F05BB84FEA410C5FEA4A
:101D80005C5CF6D14FF00000014970470000FF078E
:101D90000000F87F0EF1020E2EF0030E5EF8046BC9
:101DA000364205D4012A43EB030515F5001F12D86E
:101DB000012841EB010C1CF5001F0CD80ED14FEA95
:101DC000D17C15F5001F0CEB4C0C0CF1020C08BF7C
:101DD0004CEBD37C04E04FF0080C01E04FEAD37CDD
:101DE0000CEB4C0526FA05F606F00706B6F1040CD6
:101DF00006D20EEB860CBDE870404CF0010C60473B
:101E0000DFE80CF0090B02024FF000414FF0000038
:101E1000A1F5002170BD19461046012851EB0104BF
:101E200018BFD4F5001484BF002001F0004170BD3C
:101E30000808A0F500114FEA310170475C1E000848
:101E4000000000204400000028010008A01E000837
:101E5000440000206C06000044010008000000005F
:101E6000010203040102030406070809020406082C
:101E7000001A000000010104010000000000010040
:101E8000020000000000000003030000000000004A
:101E90000000000000000000000000000000000042
:04000005080000ED02
:00000001FF
