:020000040800F2
:100000009812002089010008910100087706000875
:100010009501000897010008990100080000000000
:100020000000000000000000000000009B0100082C
:100030009D010008000000009F010008A1010008C8
:10004000A3010008A3010008A3010008A301000800
:10005000A3010008A3010008A3010008A3010008F0
:10006000A3010008A3010008A3010008A3010008E0
:10007000A3010008A3010008A3010008A3010008D0
:10008000A3010008A3010008A3010008A3010008C0
:10009000A3010008A3010008A3010008E902000869
:1000A000A3010008A3010008A3010008A3010008A0
:1000B000A30100085D090008750A0008A3010008F3
:1000C000A3010008A3010008A3010008A301000880
:1000D000A3010008950B0008150C0008950C0008FA
:1000E000A3010008A3010008A301000800F002F822
:1000F00000F03AF80AA090E8000C82448344AAF188
:100100000107DA4501D100F02FF8AFF2090EBAE885
:100110000F0013F0010F18BFFB1A43F0010318473B
:100120001018000030180000103A24BF78C878C1B9
:10013000FAD8520724BF30C830C144BF04680C60ED
:10014000704700000023002400250026103A28BF35
:1001500078C1FBD8520728BF30C148BF0B60704739
:100160001FB51FBD10B510BD00F031F81146FFF7E7
:10017000F7FF01F05DF800F04FF803B4FFF7F2FF6E
:1001800003BC00F057F800000948804709480047C1
:10019000FEE7FEE7FEE7FEE7FEE7FEE7FEE7FEE737
:1001A000FEE7FEE704480549054A064B7047000094
:1001B000FD080008ED000008980C002098120020AF
:1001C000980E0020980E00207047704770477546C3
:1001D00000F02CF8AE4605006946534620F00700B3
:1001E000854618B020B5FFF7DDFFBDE820404FF091
:1001F00000064FF000074FF000084FF0000B21F011
:100200000701AC46ACE8C009ACE8C009ACE8C009DD
:10021000ACE8C0098D46704710B50446AFF30080C6
:100220002046BDE81040FFF7A8BF00000048704717
:10023000340C002001491820ABBEFEE72600020066
:100240007047000010B500220421244800F00EFA87
:1002500000224FF40061224800F008FA00224FF417
:1002600080511F4800F002FA00224FF400511C4850
:1002700000F0FCF900224FF48041194800F0F6F933
:1002800000220221154800F0F1F900224FF48061AC
:10029000124800F0EBF900224FF40041104800F042
:1002A000E5F900224FF400710D4800F0DFF900225B
:1002B0004FF480610A4800F0D9F900224FF48071B0
:1002C000074800F0D3F900228021054800F0CEF95C
:1002D00000221021034800F0C9F910BD000C0140B4
:1002E000001801400010014070B5402000F05AF89D
:1002F000002845D0402000F04FF800F027FF0446CA
:10030000204911F81410891CC8B200F0A5FE00F0B5
:100310000F060C2E24D10DE01A4911F8140000F03C
:100320009BFE0546184801780078401C164A10705C
:1003300016484554134911F81410491DC8B200F06D
:100340008BFE00F001000028E6D10F48007810492C
:10035000087000200C49087001200E4908700FE059
:10036000042E0DD1074911F8140000F075FE054662
:10037000054801780078401C034A10700348455432
:1003800070BD00002019000822000020340B00205E
:100390002100002020000020014908607047000073
:1003A00014040140014600200022074B1B6803EAA9
:1003B0000102054B14331B680B4013B10AB1012035
:1003C00000E00020704700000004014000212349A4
:1003D0008279002A3AD00A46126803689A430B468B
:1003E0001A600A1D126803689A430B1D1A6002798D
:1003F00011440A6803681A430A60184A08321268EE
:1004000003689A43154B08331A601A1D1268036873
:100410009A43124B0C331A604279102A0ED11A1FDC
:10042000126803681A430D4B08331A601A1D1268CC
:1004300003681A43094B0C331A600DE007494279EF
:1004400011440A6803681A430A6005E002791144FE
:100450000A6803689A430A6070470000000401407C
:1004600030B500228B071C0F0F2303FA04F20B4B4D
:100470008C1053F824309343084C8D1044F82530E9
:1004800023468C1053F824308C07240F00FA04F410
:100490002343024C8D1044F8253030BD0800014044
:1004A0002DE9F0410246002500260020002300240B
:1004B000002791F803C00CF00F0591F803C00CF071
:1004C000100CBCF1000F03D091F802C04CEA0505F6
:1004D00091F800C0BCF1000F31D0146800202BE06F
:1004E0004FF0010C0CFA00F3B1F800C00CEA03065F
:1004F0009E4220D183004FF00F0C0CFA03F7BC434F
:1005000005FA03FC4CEA040491F803C0BCF1280F7F
:1005100006D14FF0010C0CFA00FCC2F814C00AE03E
:1005200091F803C0BCF1480F05D14FF0010C0CFA53
:1005300000FCC2F810C0401C0828D1D31460B1F8E8
:1005400000C0BCF1FF0F34DD546800202EE000F144
:10055000080C4FF0010808FA0CF3B1F800C00CEADF
:1005600003069E4221D183004FF00F0C0CFA03F7D3
:10057000BC4305FA03FC4CEA040491F803C0BCF147
:10058000280F05D100F1080C08FA0CF8C2F8148005
:1005900091F803C0BCF1480F07D100F1080C4FF0EF
:1005A000010808FA0CF8C2F81080401C0828CED3C5
:1005B0005460BDE8F0810000F0B50A460023002435
:1005C0000021002500F00046B6F1004F02D11D4E7B
:1005D000F16901E01B4E7168C0F3034583B200F47A
:1005E0004016B6F5401F08D121F07061154E7668AF
:1005F00026F07066134F7E6012E000F48016B6F5A8
:10060000801F06D1032606FA05F4A14341F070616C
:1006100006E0460D360103FA06F6B14341F070617B
:1006200022B1460D360103FA06F6314300F00046CA
:10063000B6F1004F02D1034EF16101E0014E71604D
:10064000F0BD0000000001400146886880B270479C
:100650000146C86880B270474FF6FF7101800221E1
:1006600081700421C1707047C16070470AB1016197
:1006700000E04161704700BFFEE7000070B5002157
:1006800000230F22C47804B3154C246804F4E064FA
:10069000C4F5E064210AC1F10403CA40447804FAB5
:1006A00003F184781440214309010E4C0678A155CA
:1006B000047804F01F050124AC4005786D11AD00ED
:1006C00005F1E025C5F8004109E0047804F01F05B4
:1006D0000124AC40044D0678761145F8264070BDE3
:1006E0000CED00E000E400E080E100E0024901439D
:1006F000024A1160704700000000FA050CED00E0AE
:1007000029B1064AD2690243044BDA6104E0034A84
:10071000D2698243014BDA61704700000010024049
:1007200029B1064A92690243044B9A6104E0034AE4
:1007300092698243014B9A617047000000100240A9
:1007400030B500210022002400232D4D6D6805F0F6
:100750000C0121B1042905D0082923D105E0294D38
:10076000056022E0274D05601FE0254D6D6805F40A
:100770007012234D6D6805F48034022505EB92421A
:100780001CB9214D554305600BE01D4D6D6805F406
:1007900000351DB11C4D5543056002E0194D554310
:1007A000056002E0174D056000BF00BF144D6D6885
:1007B00005F0F0010909154D6B5C0568DD404560E9
:1007C0000F4D6D6805F4E061090A104D6B5C4568DA
:1007D000DD4085600A4D6D6805F46051C90A0B4D16
:1007E0006B5C4568DD40C560054D6D6805F44041B2
:1007F000890B074D6B5CC568B5FBF3F5056130BD32
:100800000010024000127A0000093D0000000020A4
:100810001000002010B500F001F810BD0CB500204C
:10082000019000903348006840F4803031490860FE
:1008300000BF3048006800F4003000900198401C70
:100840000190009818B90198B0F5A06FF1D129482E
:10085000006800F4003010B10120009001E0002099
:1008600000900098012843D12348006840F0100010
:10087000214908600846006820F003000860084627
:10088000006840F0020008601A4840681949486052
:100890000846406848600846406840F48060486008
:1008A0000846406820F47C1048600846406840F4E0
:1008B000E81048600846006840F08070086000BF9B
:1008C0000C48006800F000700028F9D00948406822
:1008D00020F00300074948600846406840F00200E5
:1008E000486000BF0348406800F00C000828F9D1B8
:1008F0000CBD0000001002400020024010B513485B
:10090000006840F00100114908600846406810493D
:1009100008400E494860084600680E4908400B49E7
:1009200008600846006820F4802008600846406897
:1009300020F4FE0048604FF41F008860FFF76AFF54
:100940004FF000600449086010BD00000010024034
:100950000000FFF8FFFFF6FE08ED00E070B5012192
:10096000264800F0AAF8002847D00121234800F0CB
:1009700095F82348007804280CD0214800780528F1
:1009800008D000211D4800F08CF8012208211D48E4
:10099000FFF76CFE1C48FFF757FE044604F080008A
:1009A00060B117480078052808D10021134800F0ED
:1009B00078F8012208211348FFF758FE04F04000A0
:1009C00060B10F480078042808D100210B4800F0DE
:1009D00068F8012208210B48FFF748FE0B48007811
:1009E00008B9012000E00020084908700846057891
:1009F0002A4604210348FFF739FE70BD0004004079
:100A000014000020001401400008014028000020CC
:100A10001FB501210420FFF773FE42F20F70ADF8FD
:100A2000080041F61F40ADF804000020ADF80A00B0
:100A3000ADF8060001A90E4800F05AF8012211464F
:100A40000B4800F04BF81E208DF8000002208DF8B6
:100A5000010003208DF8020001208DF80300684694
:100A6000FFF70CFE0121024800F01BF81FBD00003B
:100A70000008004010B50121064800F01EF840B102
:100A80000121044800F00AF803480068401C0249AC
:100A9000086010BD0008004024000020CA43028204
:100AA000704721B1028842F00102028004E002880E
:100AB0004FF6FE731A400280704730B502460020A0
:100AC00000230024158A05EA0103958905EA01043B
:100AD00013B10CB1012000E0002030BD1AB18389B0
:100AE0000B43838102E083898B438381704700003D
:100AF000002202881D4B98420ED01D4B98420BD00D
:100B0000B0F1804F08D01B4B984205D01A4B984249
:100B100002D01A4B984204D14FF68F731A404B887B
:100B20001A43174B984207D0164B984204D04FF601
:100B3000FF431A40CB881A4302808B8883850B8839
:100B400003850A4B98420BD0094B984208D00E4BB4
:100B5000984205D00D4B984202D00D4B984201D1DE
:100B60000B7A03860123838270470000002C01402A
:100B7000003401400004004000080040000C004028
:100B800000100040001400400040014000440140BB
:100B90000048014008B540F22441194800F0E8F847
:100BA000B0B140F22441164800F0BAF81448008869
:100BB00000901348001D00880090124800781249E8
:100BC000087000200F49087001201049087016E0D5
:100BD00040F225510A4800F0CBF880B140F225518F
:100BE000074800F09DF8064800F07EF9C1B20548BC
:100BF00002780078401C034B18700548815408BDEA
:100C0000003801401C0000201A00002015000020C0
:100C10002C08002008B540F22441194800F0A8F83B
:100C2000B0B140F22441164800F07AF81448008828
:100C300000901348001D0088009012480078124967
:100C4000087000200F49087001201049087016E054
:100C500040F225510A4800F08BF880B140F225514E
:100C6000074800F05DF8064800F03EF9C1B20548BB
:100C700002780078401C034B18700548815408BD69
:100C8000004400401C0000201A0000201500002035
:100C90002C08002008B540F224411C4800F068F8F8
:100CA000B0B140F22441194800F03AF817480088E2
:100CB00000901648001D00880090154800781549DE
:100CC00008700020124908800120134908701BE0B9
:100CD00040F225510D4800F04BF8A8B140F22551E3
:100CE0000A4800F01DF80A480088B0F5006F0BDADA
:100CF000064800F0F9F8C1B2054802880088401C97
:100D0000034B18800548815408BD0000004800408E
:100D10002A0000202100002020000020340B0020A9
:100D200010B50022002340F66A14A14200D100BF92
:100D30000A1201249440A3B2DC43048010BD21B107
:100D4000828942F40052828104E082894DF6FF7369
:100D50001A408281704702460020B1F5007F00D121
:100D600000BF13880B400BB1012000E0002070474A
:100D700070B50246002400230025002040F66A16C4
:100D8000B14200D100BFC1F3421501F01F0301269B
:100D900006FA03F3012D02D19689334006E0022DB5
:100DA00002D1168A334001E0968A33400C120126A4
:100DB00006FA04F41688344013B10CB1012000E0A7
:100DC000002070BDF0B50346002400260025002059
:100DD00040F66A17B94200D100BF1846C1F3421469
:100DE00001F01F06012707FA06F5012C01D10C308E
:100DF00004E0022C01D1103000E014301AB1076871
:100E00002F43076002E00768AF430760F0BD0000B2
:100E10002DE9F04786B005460E460024A24600BFE5
:100E2000A1460027B08900B100BF2F462C8A4CF69E
:100E3000FF700440F08804432C82AC894EF6F31016
:100E40000440B08831890843718908430443AC8168
:100E5000AC8A4FF6FF400440B0890443AC8201A83D
:100E6000FFF76EFC1F48874202D1DDF810A001E0B9
:100E7000DDF80CA0A88900F4004040B10AEBCA00DC
:100E800000EB0A1031684900B0FBF1F807E00AEB0B
:100E9000CA0000EB0A1031688900B0FBF1F8642049
:100EA000B8FBF0F004012009642101FB1089A88936
:100EB00000F4004040B1322000EBC900B0FBF1F07B
:100EC00000F00700044308E0322000EB0910642121
:100ED000B0FBF1F000F00F0004432C8106B0BDE838
:100EE000F08700000038014001468888C0F3080000
:100EF0007047C1F30802828070474FF416510160B9
:100F000000218180C18001810C21418100218181EA
:100F10007047000070B504460D464FF4E13090FB79
:100F2000F5F0C6B21B4911F81410C91CC8B28321D0
:100F300000F0CEF8174911F81400314600F0C8F857
:100F4000144911F81410491CC8B2002100F0C0F86F
:100F5000104911F81410C91CC8B2032100F0B8F8E8
:100F60000C4911F81410891CC8B2C12100F0B0F866
:100F7000084911F81410491CC8B2012100F0A8F862
:100F8000044911F81410091DC8B2082100F0A0F896
:100F900070BD00002019000808B501210820FFF7E6
:100FA000BFFB01211020FFF7BBFB01212020FFF731
:100FB000B7FB4FF47040ADF8000010208DF803002F
:100FC00003208DF8020069461A48FFF769FA0022EB
:100FD0004FF400411748FFF749FB00F0DDFB4FF4E9
:100FE00016510020FFF796FF4FF416510120FFF72E
:100FF00091FF4FF416510220FFF78CFF4FF416516A
:101000000320FFF787FF4FF4E1310420FFF782FF51
:101010004FF416510520FFF77DFF4FF416510620BF
:10102000FFF778FF4FF416510720FFF773FF00F02A
:10103000B5F808BD000C014070B504460D460549E1
:1010400011F81400294600F043F8012000F0C5F81B
:1010500070BD00002019000870B50446002501226B
:1010600051031948FFF702FB012211031648FFF74D
:10107000FDFA012291031448FFF7F8FA1348FFF72D
:10108000E7FA64F31F20064631461048FFF7ECFAF2
:1010900000224FF400510C48FFF7E8FA00F06CF81A
:1010A00000224FF480410848FFF7E0FA0748FFF7B5
:1010B000CBFA0512012291030348FFF7D7FA00F09B
:1010C0006DF8284670BD0000000C0140001401407E
:1010D00070B504460D46012251031A48FFF7C6FABF
:1010E000012211031748FFF7C1FA012291031548A5
:1010F000FFF7BCFA1448FFF7ABFA64F31F2006466B
:1011000031461148FFF7B0FA00224FF400510D4864
:10111000FFF7ACFA00F042F80B48FFF799FA65F3D5
:101120001F20064631460848FFF79EFA00224FF47A
:1011300080510448FFF79AFA012211030148FFF792
:1011400095FA70BD000C01400014014070B50025F7
:1011500000244F20FFF780FF054600BF07E045FA57
:1011600004F000F0010008B1E0B270BD641C082C6E
:10117000F5DBE0B2F9E7000008B54FF47F40ADF8C9
:10118000000048208DF8030001208DF80200694618
:101190000148FFF785F908BD0014014008B54FF478
:1011A0007F40ADF8000010208DF8030001208DF87D
:1011B000020069460148FFF773F908BD00140140B9
:1011C000002107E0002201E000BF521CB2F5A06F31
:1011D000FADB491C8142F5DB7047002107E042F64B
:1011E000E06100BF0A1EA1F1010399B2FAD1021E0B
:1011F000A0F1010398B2F2D17047000010B50A487F
:10120000007808B9012000E000200749087008466E
:10121000007808B9012000E0002002464FF48071F8
:101220000248FFF723FA10BD1D000020000C01400A
:101230000220F049087000F0A9FA0020EE49087079
:1012400000F002FBFFF7A8FE00F0F8F9FFF7E0FB63
:101250004020FFF7A1F8002400BF06E00020E74986
:101260000855E7490855601C84B2B4F5006FF5DBFA
:1012700000222021E348FFF7F9F901221146E24854
:10128000FFF7F4F90A20FFF79BFF00F067FAB0E1DF
:1012900000F0B4FADD480078002871D00020DB4966
:1012A0000870DB480078DB490870002405E0DA4864
:1012B000005DDA490855601C84B2D6480078844243
:1012C000F5DBD6480078AC2813D1D4484078AC2858
:1012D0000FD1D048007802280BD1AC21D048FFF7BD
:1012E00008FE00BF8021CE48FFF735FD0028F9D069
:1012F0007FE1CA480078FF280ED1C8484078FF280F
:101300000AD1C6488078FF2806D1C448C078FF2893
:1013100002D1FEF797FF6CE1C0480078C149087020
:10132000BE4840784870BD4880788870BB480079D6
:10133000BA49C97800EB0120BA49888008468088FC
:10134000FA2800DD55E1002407E0B449601D095C7E
:10135000B448801D0155601C84B2B2488088A04208
:10136000F3DCAD484078082800DA42E1AD488078E7
:10137000002857D1AC480078082811D100240AE091
:1013800005E1FFF73BFFA748801D015D0320FFF744
:1013900053FE601C84B2A3488088A042F1DC3DE08B
:1013A000A1480078092825D19E4840780A2810D104
:1013B000002409E0FFF722FF9A48801D015D01200B
:1013C000FFF73AFE601C84B296488088A042F1DCA8
:1013D00024E0002409E0FFF711FF9248801D015D21
:1013E0000220FFF729FE601C84B28E488088A0424C
:1013F000F1DC13E08C4800780A280FD1002409E0C2
:10140000FFF7FCFE8748801D015D0120FFF714FEF9
:10141000601C84B283488088A042F1DC3220FFF750
:10142000DCFEE6E07F488078012829D17D484078BD
:10143000092825D17B48807905280ED10022022178
:101440007148FFF713F94FF47A70FFF7C6FE0122D7
:1014500002216D48FFF70AF912E0724880790628E8
:1014600005D1012210216748FFF700F908E06D4817
:101470008079072804D1002210216248FFF7F6F88E
:1014800068488078022869D1012220215D48FFF751
:10149000EDF8002201215C48FFF7E8F86148407848
:1014A00061490870012054490870FEF7CBFE5D4881
:1014B0004078082804D009281CD00A284CD13DE0E7
:1014C000012204215048FFF7D1F80122D1025748E8
:1014D000FFF7CCF8012211035448FFF7C7F80122A7
:1014E00051035248FFF7C2F8012291034F48FFF71A
:1014F000BDF831E0012202214348FFF7B7F801228D
:1015000091024148FFF7B2F80122D1034748FFF7A3
:10151000ADF8012251024548FFF7A8F801229102D7
:101520004248FFF7A3F8012211024048FFF79EF856
:10153000012280213D48FFF799F80DE001221102B8
:101540003A48FFF793F8012280213848FFF78EF8D8
:101550000A20FFF735FE00BF00BF4AE0314880781F
:10156000032814D100202449087000222021254896
:10157000FFF77CF8012211462348FFF777F800F0C7
:10158000EDF8FEF75FFE00202749087031E028489B
:10159000007868B30020264908702648007826495C
:1015A0000880002405E01548005D15490855601CB9
:1015B00084B2214800888442F5DB00240DE0104805
:1015C000015D1748FFF795FC00BF80211448FFF725
:1015D000C2FB0028F9D0601C84B2174800888442FE
:1015E00003DA054800780028E9D10A20FFF7E8FD72
:1015F00000BF4DE61E0000201F000020340B00201D
:101600002C00002000100140000C014015000020BB
:101610001A0000201B0000202C0800202C090020AC
:10162000004400402C0A0020140000200018014053
:1016300020000020210000201600002008B5012015
:10164000ADF8000010208DF8030003208DF8020093
:1016500069463F48FEF724FF002201213C48FFF77E
:1016600005F82020ADF8000010208DF803000320BD
:101670008DF8020069463748FEF712FF012220214B
:101680003448FEF7F3FF4FF4C070ADF800001020AF
:101690008DF8030003208DF8020069462E48FEF7FE
:1016A000FFFE0620ADF8000010208DF80300032097
:1016B0008DF8020069462648FEF7F2FE4FF480607E
:1016C000ADF8000010208DF8030003208DF8020013
:1016D00069461F48FEF7E4FE4FF40640ADF80000EF
:1016E00010208DF8030003208DF8020069461A4887
:1016F000FEF7D6FE4FF4F040ADF8000010208DF854
:10170000030003208DF8020069461348FEF7C8FE67
:101710004FF48070ADF8000010208DF80300032016
:101720008DF8020069460A48FEF7BAFE012211024E
:101730000748FEF79BFF1020ADF800008DF803006E
:1017400003208DF8020069460248FEF7A9FE08BD95
:10175000000C014000100140001801401CB500249D
:1017600008A103C9CDE9000100BF08E0FFF746FD6D
:101770001DF804100120FFF75FFC601CC4B2082CA8
:10178000F4DB1CBD410000000000004110B5012148
:101790007D20FEF7C5FF10BD1FB501211020FEF70B
:1017A000BFFF4020ADF8000048208DF803006946D7
:1017B0001148FEF775FE01210846FEF7B1FF06212C
:1017C0000220FEF74DFE4020029000208DF80C0014
:1017D0000C208DF80D0001208DF80E0002A8FEF7F8
:1017E000F5FD17208DF8040001208DF8070001A8F1
:1017F000FEF744FF1FBD00000010014010B50F4868
:101800000068C8B10E48007808B9012000E0002047
:101810000B4908700846007830B100224FF48071FF
:101820000848FEF723FF04E0012211020548FEF7F5
:101830001DFF00200149086010BD000024000020A9
:101840001D000020000C014000B587B001212020C0
:10185000FEF766FF01214804FEF752FF012108460A
:10186000FEF75EFF01210820FEF7A6FE06A8FEF7A0
:10187000F3FE2020ADF8180018208DF81B00012081
:101880008DF81A0006A92448FEF70AFE4020ADF89C
:10189000180004208DF81B0001208DF81A0006A9FD
:1018A0001D48FEF7FDFD02A8FFF727FB4FF4E130CE
:1018B00002900020ADF80C00ADF80E00ADF810005D
:1018C0000C20ADF812000020ADF8140002A9134856
:1018D000FFF79EFA012240F225511048FFF772FAF5
:1018E000012240F224410D48FFF76CFA01210B4818
:1018F000FFF725FA4FF4A060FEF7F8FE26208DF8DA
:10190000040001208DF805008DF8070001A8FEF7FE
:10191000B5FE07B000BD00000014014000440040C7
:1019200000001000200030000800180028003800D7
:1019300050190008000000202C00000028010008B9
:101940007C1900082C0000206C12000044010008E3
:101950000000000001020304010203040607080955
:101960000204060800000000FF0100000000000063
:0C1970000000000000000000000000006B
:04000005080000ED02
:00000001FF
