:020000040800F2
:10000000B815002089010008910100081B060008AE
:100010009501000897010008990100080000000000
:100020000000000000000000000000009B0100082C
:100030009D010008000000009F010008D50900088C
:10004000A3010008A3010008A3010008A301000800
:10005000A3010008A3010008A3010008A3010008F0
:10006000A3010008A3010008A3010008A3010008E0
:10007000A3010008A3010008A3010008A3010008D0
:10008000A3010008A3010008A3010008A3010008C0
:10009000A3010008A3010008A3010008B1020008A1
:1000A000A3010008A3010008A3010008A3010008A0
:1000B000A30100088D0A0008410C0008A3010008F4
:1000C000A3010008A3010008A3010008A301000880
:1000D000A3010008B10D00083D0E0008A3010008AF
:1000E000A3010008A3010008A301000800F002F822
:1000F00000F03AF80AA090E8000C82448344AAF188
:100100000107DA4501D100F02FF8AFF2090EBAE885
:100110000F0013F0010F18BFFB1A43F0010318473B
:10012000E42F000004300000103A24BF78C878C1E2
:10013000FAD8520724BF30C830C144BF04680C60ED
:10014000704700000023002400250026103A28BF35
:1001500078C1FBD8520728BF30C148BF0B60704739
:100160001FB51FBD10B510BD00F031F81146FFF7E7
:10017000F7FF01F0F9FD00F04FF803B4FFF7F2FFCD
:1001800003BC00F057F800000948804709480047C1
:10019000FEE7FEE7FEE7FEE7FEE7FEE7FEE7FEE737
:1001A000FEE7FEE704480549054A064B7047000094
:1001B0002D0A0008ED000008B80F0020B815002037
:1001C000B8110020B811002070477047704775467D
:1001D00000F02CF8AE4605006946534620F00700B3
:1001E000854618B020B5FFF7DDFFBDE820404FF091
:1001F00000064FF000074FF000084FF0000B21F011
:100200000701AC46ACE8C009ACE8C009ACE8C009DD
:10021000ACE8C0098D46704710B50446AFF30080C6
:100220002046BDE81040FFF7A8BF00000048704717
:10023000580F002001491820ABBEFEE7260002003F
:100240007047000010B500228021174800F0E0F947
:1002500000224FF40071144800F0DAF900224FF444
:100260008071114800F0D4F900224FF400710F485A
:1002700000F0CEF900224FF400610C4800F0C8F9FC
:1002800000224FF48071094800F0C2F900224FF4B7
:100290008061064800F0BCF900224FF48051034809
:1002A00000F0B6F910BD0000001001400008014048
:1002B00070B5402000F036F808B3402000F02CF86C
:1002C00001F058F804460F4911F8140000F0C0FF7F
:1002D00005469CB101200C49087064200B49087048
:1002E0000B48008840F2FF71884207DA084801880D
:1002F0000088401C064A10800648455470BD00BF67
:10030000FCE70000F4300008380000202400002042
:1003100022000020500000200149086070470000C2
:1003200014040140014600200022074B1B6803EA29
:100330000102054B14331B680B4013B10AB10120B5
:1003400000E0002070470000000401400021234924
:100350008279002A3AD00A46126803689A430B460B
:100360001A600A1D126803689A430B1D1A6002790D
:1003700011440A6803681A430A60184A083212686E
:1003800003689A43154B08331A601A1D12680368F4
:100390009A43124B0C331A604279102A0ED11A1F5D
:1003A000126803681A430D4B08331A601A1D12684D
:1003B00003681A43094B0C331A600DE00749427970
:1003C00011440A6803681A430A6005E0027911447F
:1003D0000A6803689A430A607047000000040140FD
:1003E00030B500228B071C0F0F2303FA04F20B4BCE
:1003F0008C1053F824309343084C8D1044F825306A
:1004000023468C1053F824308C07240F00FA04F490
:100410002343024C8D1044F8253030BD08000140C4
:100420002DE9F0410246002500260020002300248B
:10043000002791F803C00CF00F0591F803C00CF0F1
:10044000100CBCF1000F03D091F802C04CEA050576
:1004500091F800C0BCF1000F31D0146800202BE0EF
:100460004FF0010C0CFA00F3B1F800C00CEA0306DF
:100470009E4220D183004FF00F0C0CFA03F7BC43CF
:1004800005FA03FC4CEA040491F803C0BCF1280F00
:1004900006D14FF0010C0CFA00FCC2F814C00AE0BF
:1004A00091F803C0BCF1480F05D14FF0010C0CFAD4
:1004B00000FCC2F810C0401C0828D1D31460B1F869
:1004C00000C0BCF1FF0F34DD546800202EE000F1C5
:1004D000080C4FF0010808FA0CF3B1F800C00CEA60
:1004E00003069E4221D183004FF00F0C0CFA03F754
:1004F000BC4305FA03FC4CEA040491F803C0BCF1C8
:10050000280F05D100F1080C08FA0CF8C2F8148085
:1005100091F803C0BCF1480F07D100F1080C4FF06F
:10052000010808FA0CF8C2F81080401C0828CED345
:100530005460BDE8F0810000F0B50A4600230024B5
:100540000021002500F00046B6F1004F02D11D4EFB
:10055000F16901E01B4E7168C0F3034583B200F4FA
:100560004016B6F5401F08D121F07061154E76682F
:1005700026F07066134F7E6012E000F48016B6F528
:10058000801F06D1032606FA05F4A14341F07061ED
:1005900006E0460D360103FA06F6B14341F07061FC
:1005A00022B1460D360103FA06F6314300F000464B
:1005B000B6F1004F02D1034EF16101E0014E7160CE
:1005C000F0BD0000000001400146886880B270471D
:1005D0000246002093680B400BB1012000E0002090
:1005E00070470146C86880B2704702460020D36851
:1005F0000B400BB1012000E0002070474FF6FF7167
:100600000180022181700421C1707047C160704770
:100610000AB1016100E04161704700BFFEE70000E0
:1006200070B5002100230F22C47804B3154C246850
:1006300004F4E064C4F5E064210AC1F10403CA4093
:10064000447804FA03F184781440214309010E4CE4
:100650000678A155047804F01F050124AC40057804
:100660006D11AD0005F1E025C5F8004109E0047801
:1006700004F01F050124AC40044D0678761145F8BE
:10068000264070BD0CED00E000E400E080E100E0F9
:1006900002490143024A1160704700000000FA0558
:1006A0000CED00E010B5002807DA0A07140E054A21
:1006B00000F00F031B1FD45403E00A07130E024A75
:1006C000135410BD18ED00E000E400E01CB538A1A3
:1006D00003C9CDE9000180213748FFF779FF0028E1
:1006E0004FD03648007800B91CBD0A2001F0FCFA52
:1006F00080213148FFF76CFF002857D000240DE01F
:100700001DF804102E4800F0C6FC00BF80212C48C4
:1007100000F0F3FB0028F9D0601CC4B2062CEFDB1C
:100720003C2001F0E1FA0A208DF801000D208DF83F
:10073000050000240DE01DF80410214800F0ABFC7A
:1007400000BF80211E4800F0D8FB0028F9D0601CB3
:10075000C4B2062CEFDB0A2001F0C6FA012080F3B8
:10076000138800BF00BF1748006800F4E060164916
:100770000843001D13490860BFF34F8F00BF00BF3F
:10078000FEE70E480078012800D1ADE7FF200F49B1
:100790004870012220210E48FFF73AFF0022012174
:1007A0000C48FFF735FF01200449087000BF9BE7A4
:1007B00000090300000C0000001801402B0000207D
:1007C000003801400CED00E00000FA052C0000208C
:1007D00000100140000C014029B1064AD2690243D1
:1007E000044BDA6104E0034AD2698243014BDA61C7
:1007F000704700000010024029B1064A9269024386
:10080000044B9A6104E0034A92698243014B9A6166
:10081000704700000010024030B500210022002483
:1008200000232D4D6D6805F00C0121B1042905D080
:10083000082923D105E0294D056022E0274D0560F8
:100840001FE0254D6D6805F47012234D6D6805F4A9
:100850008034022505EB92421CB9214D55430560B9
:100860000BE01D4D6D6805F400351DB11C4D554361
:10087000056002E0194D5543056002E0174D056023
:1008800000BF00BF144D6D6805F0F0010909154D5A
:100890006B5C0568DD4045600F4D6D6805F4E061F7
:1008A000090A104D6B5C4568DD4085600A4D6D6836
:1008B00005F46051C90A0B4D6B5C4568DD40C560AD
:1008C000054D6D6805F44041890B074D6B5CC568AB
:1008D000B5FBF3F5056130BD0010024000127A004F
:1008E00000093D00000000201000002010B500F0BD
:1008F00001F810BD0CB5002001900090334800684D
:1009000040F480303149086000BF3048006800F48E
:10091000003000900198401C0190009818B901988F
:10092000B0F5A06FF1D12948006800F4003010B193
:100930000120009001E0002000900098012843D1A0
:100940002348006840F0100021490860084600680C
:1009500020F0030008600846006840F002000860CC
:100960001A48406819494860084640684860084687
:10097000406840F4806048600846406820F47C107D
:1009800048600846406840F4E8104860084600683F
:1009900040F08070086000BF0C48006800F00070F4
:1009A0000028F9D00948406820F003000749486052
:1009B0000846406840F00200486000BF03484068B5
:1009C00000F00C000828F9D10CBD00000010024016
:1009D000002002401048007880B901200F490870BB
:1009E00000200F4908700F4800880F490880002038
:1009F0000C490880FF20084908700CE00648007880
:100A0000002808DD04480078C82804DA0248007885
:100A1000401E014908707047240000202600002075
:100A200038000020220000201E00002010B51348CE
:100A3000006840F00100114908600846406810490C
:100A400008400E494860084600680E4908400B49B6
:100A500008600846006820F4802008600846406866
:100A600020F4FE0048604FF41F008860FFF73EFF4F
:100A70004FF000600449086010BD00000010024003
:100A80000000FFF8FFFFF6FE08ED00E010B50121C1
:100A9000414800F020F900287CD001213E4800F0B8
:100AA0000BF93E488078042810D03C48807805280F
:100AB0000CD03A488078FF2808D00021364800F052
:100AC000FEF8012202213648FFF7A2FD80213548B9
:100AD000FFF77EFD28B308213148FFF786FD00B3FC
:100AE00031480068401C3049086008460068B0F58D
:100AF000487F40DD002008600021274800F0DFF833
:100B0000012202212648FFF783FD01228021274888
:100B1000FFF77EFD042021498870012024490870D8
:100B200029E040211F48FFF753FD20B308211C484E
:100B3000FFF75BFDF8B91C480068401C1A490860C3
:100B400008460068B0F5487F15DD002008600021E8
:100B5000114800F0B4F8012202211148FFF758FDB6
:100B6000012251021148FFF753FD05200B498870FF
:100B700001200F49087004210948FFF736FD10B91C
:100B8000012001E006E0002004462246042104483A
:100B9000FFF73EFD10BD0000000400402C000020C7
:100BA00000140140000801404C00002000100140EA
:100BB0003600002000B585B001210420FFF70CFEAF
:100BC00042F20F70ADF80C0041F61F40ADF808007E
:100BD0000020ADF80E00ADF80A0002A9164800F09A
:100BE00095F801221146144800F086F81E208DF871
:100BF000040005208DF8060001208DF8070001A8EB
:100C0000FFF70EFD01210C4800F059F84FF48070F9
:100C1000ADF8000010208DF8030003208DF80200CD
:100C200069460648FFF7FCFB012211020348FFF763
:100C3000EFFC05B000BD000000080040000C0140C2
:100C400010B50121174800F046F848B301211548B6
:100C500000F032F814480078401C1349087013481B
:100C60000078FF2807DA1148007820B10F48007893
:100C7000401C0E4908700E480078FF2807DA0C481F
:100C8000007820B10A480078401C094908700948DA
:100C90000078002804DD07480078401E05490870E8
:100CA00010BD00000008004048000020490000205E
:100CB0004A00002041000020CA430282704721B14F
:100CC000028842F00102028004E002884FF6FE73BF
:100CD0001A400280704730B50246002000230024ED
:100CE000158A05EA0103958905EA010413B10CB1DF
:100CF000012000E0002030BD1AB183890B438381BD
:100D000002E083898B4383817047000000220288C0
:100D10001D4B98420ED01D4B98420BD0B0F1804F26
:100D200008D01B4B984205D01A4B984202D01A4B60
:100D3000984204D14FF68F731A404B881A43174BD1
:100D4000984207D0164B984204D04FF6FF431A4002
:100D5000CB881A4302808B8883850B8803850A4BD6
:100D600098420BD0094B984208D00E4B984205D0C0
:100D70000D4B984202D00D4B984201D10B7A03865D
:100D80000123838270470000002C014000340140A1
:100D90000004004000080040000C0040001000402B
:100DA0000014004000400140004401400048014060
:100DB00008B540F224411C4800F0ACF8B0B140F254
:100DC0002441194800F07EF8174800880090164822
:100DD000001D0088009015480088154908800020F3
:100DE000124908800120134908701CE040F2255187
:100DF0000D4800F08FF8B0B140F225510A4800F0DC
:100E000061F80A48008840F2FF7188420BDA064810
:100E100000F03CF9C1B2054802880088401C034B31
:100E200018800548815408BD003801402200002088
:100E30001E000020140000205000002008B540F2E1
:100E400024411B4800F066F8B0B140F22441184834
:100E500000F038F81648008800901548001D0088FA
:100E60000090144800781449087000201149087057
:100E70000120124908701AE040F225510C4800F098
:100E800049F8A0B140F22551094800F01BF8094883
:100E90000078FF280BDA064800F0F8F8C1B20548E0
:100EA00002780078401C034B18700548815408BD37
:100EB000004400402A0000202800002027000020D5
:100EC000500C002010B50022002340F66A14A14205
:100ED00000D100BF0A1201249440A3B2DC43048075
:100EE00010BD21B1828942F40052828104E08289DE
:100EF0004DF6FF731A408281704702460020B1F51B
:100F0000007F00D100BF13880B400BB1012000E02F
:100F10000020704770B50246002400230025002001
:100F200040F66A16B14200D100BFC1F3421501F08C
:100F30001F03012606FA03F3012D02D196893340DF
:100F400006E0022D02D1168A334001E0968A334032
:100F50000C12012606FA04F41688344013B10CB1C1
:100F6000012000E0002070BDF0B5034600240026FB
:100F70000025002040F66A17B94200D100BF18468C
:100F8000C1F3421401F01F06012707FA06F5012CF0
:100F900001D10C3004E0022C01D1103000E01430FB
:100FA0001AB107682F43076002E00768AF43076084
:100FB000F0BD00002DE9F04786B005460E4600243E
:100FC000A24600BFA1460027B08900B100BF2F464E
:100FD0002C8A4CF6FF700440F08804432C82AC89C4
:100FE0004EF6F3100440B0883189084371890843F4
:100FF0000443AC81AC8A4FF6FF400440B0890443FF
:10100000AC8201A8FFF708FC1F48874202D1DDF837
:1010100010A001E0DDF80CA0A88900F4004040B168
:101020000AEBCA0000EB0A1031684900B0FBF1F886
:1010300007E00AEBCA0000EB0A1031688900B0FB38
:10104000F1F86420B8FBF0F004012009642101FBF1
:101050001089A88900F4004040B1322000EBC9009B
:10106000B0FBF1F000F00700044308E0322000EB91
:1010700009106421B0FBF1F000F00F0004432C8153
:1010800006B0BDE8F08700000038014001468888BE
:10109000C0F308007047C1F30802828070474FF424
:1010A0001651016000218180C18001810C214181A4
:1010B000002181817047000070B504460D464FF451
:1010C000E13090FBF5F0C6B20F4911F81410C91CBD
:1010D000C8B2832100F002F90B4911F8140031461F
:1010E00000F0FCF8084911F81410491CC8B200219E
:1010F00000F0F4F8044911F81410C91CC8B2032117
:1011000000F0ECF870BD0000F430000838B50024A1
:1011100001210420FFF770FB01210820FFF76CFB81
:1011200001211020FFF768FB01212020FFF764FB5D
:1011300001214020FFF760FB4FF47040ADF8000044
:1011400010208DF8030003208DF8020069462B481B
:10115000FFF766F900224FF400412848FFF758FADC
:1011600000224FF400512548FFF752FA01221103E3
:101170002248FFF74DFA012291032048FFF748FA71
:1011800001F018FE00BF08E0E0B24FF41651FFF77F
:1011900093FFE0B200F036F8641C042CF4DB4FF44B
:1011A000E1310420FFF788FF042000F02BF84FF412
:1011B00016510520FFF780FF052000F023F84FF4BB
:1011C00016510620FFF778FF062000F01BF84FF4B9
:1011D00016510720FFF770FF072000F013F800F00A
:1011E000F5F801F01BFE002405E0054911F8140094
:1011F00000F02EF8641C082CF7DB38BD000C014011
:10120000F430000810B50446104911F81410891C78
:10121000C8B2012100F062F80C4911F81410C91C81
:10122000C8B2032100F05AF8084911F81410491CFB
:10123000C8B2012100F052F8044911F81410091D38
:10124000C8B2082100F04AF810BD0000F4300008D0
:101250002DE9F041054600272E464FF6FF7000EAC3
:10126000062606F47F461B48FFF7BBF90446E4B2A6
:101270003443012251031848FFF7CAF90122110330
:101280001548FFF7C5F9012291031348FFF7C0F98C
:1012900021461048FFF7BAF900224FF400510E48DA
:1012A000FFF7B6F900F080F800224FF480410A48B9
:1012B000FFF7AEF90748FFF787F904462712012226
:1012C00091030548FFF7A4F900F080F83846BDE81F
:1012D000F081000000140140000C01402DE9F041B4
:1012E00006460F4634463D464FF6FF7000EA04249A
:1012F00004F47F4400EA052505F47F451B48FFF709
:1013000070F9804608F0FF0848EA040448EA050539
:10131000012251031648FFF77BF9012211031448FB
:10132000FFF776F9012291031148FFF771F9214681
:101330000E48FFF76BF900224FF400510C48FFF7FD
:1013400067F900F043F800BF29460848FFF75EF947
:1013500000224FF480510648FFF75AF90122110389
:101360000348FFF755F9BDE8F08100000014014083
:10137000000C014070B5002500244F20FFF768FFE6
:10138000054600BF0BE0062C06DA45FA04F000F033
:10139000010018B1E0B270BD0020FCE7641C082C0D
:1013A000F1DB0020F7E7000008B54FF47F40ADF80F
:1013B000000048208DF8030001208DF802006946E6
:1013C0000148FFF72DF808BD0014014008B54FF49F
:1013D0007F40ADF8000010208DF8030001208DF84B
:1013E000020069460148FFF71BF808BD00140140E0
:1013F0007CB505460E468DF800508DF8016004203E
:101400008DF8020000208DF803008DF804000421FF
:10141000684600F01DF88DF8050000240DE01DF869
:1014200004100948FFF737FE00BF80210648FFF788
:1014300064FD0028F9D0601CC4B2062CEFDB01204B
:10144000024908707CBD00000038014041000020C6
:1014500030B504460D460021002200BF02E0A05C2A
:101460000144521CAA42FADB0B46C81701EB10607C
:101470000012A1EB0020C0B230BD00002DE9FC41FC
:1014800005460E461746984614A103C9CDE900014A
:101490008DF800508DF801608DF805708DF806808C
:1014A00007216846FFF7D4FF8DF8070000240DE000
:1014B0001DF804100B48FFF7EEFD00BF802109481E
:1014C000FFF71BFD0028F9D0601CC4B2082CEFDB2D
:1014D000012005490870BDE8FC8100000000010002
:1014E0000200000000380140410000200022F74BBC
:1014F0001A70F74A10700122F64B1A700022F64B50
:101500001A70F64B1A70FF22F54B1A70F54B1A70D1
:101510000022F54B1A70042871D11A701A22F34B6D
:101520001A70F34B1A70F34B1A704022F24B1A7078
:10153000F24B1A70F24B1A7014291BD2DFE801F03B
:101540005588BAEC6A747E609CA6B092CED8E2C48C
:101550000A1B2C44E44A127842F00102E24B1A7052
:101560001A46127842F002021A701922DF4B1A70E2
:10157000DF4B1A70D0E0DC4A127842F00202DA4BFC
:101580001A701A46127842F004021A701922D84BC7
:101590001A70D84B1A70BFE0D34A127842F0010299
:1015A000D14B1A701A46127842F002021A701A468B
:1015B000127842F004021A701922CC4B1A70CC4BEC
:1015C0001A70CC4B1A70A7E0C74A127842F0010299
:1015D000C54B1A701A46127842F004021A7019228A
:1015E000C24B1A70C34B1A7096E0BF4A127842F091
:1015F0000102BD4B1A701922BC4B1A708CE08CE0B2
:10160000B94A127842F00102B74B1A701622B74B52
:101610001A7081E0B44A127842F00102B24B1A709B
:101620002622B24B1A7077E0AF4A127842F00102DC
:10163000AD4B1A704622AD4B1A706DE0AA4A127873
:1016400042F00102A84B1A708622A84B1A7063E080
:10165000A54A127842F00202A34B1A701922A44B39
:101660001A7059E0A04A127842F002029E4B1A709A
:1016700016229F4B1A704FE09B4A127842F00202EA
:10168000994B1A7026229A4B1A7045E0964A1278A6
:1016900042F00202944B1A704622954B1A703BE0BE
:1016A000914A127842F002028F4B1A708622904BB8
:1016B0001A7031E08C4A127842F004028A4B1A7098
:1016C00019228C4B1A7027E0874A127842F00402E4
:1016D000854B1A701622874B1A701DE0824A1278C9
:1016E00042F00402804B1A702622824B1A7013E0DB
:1016F0007D4A127842F004027B4B1A7046227D4BE1
:101700001A7009E0784A127842F00402764B1A7097
:101710008622784B1A7000BFBCE2052870D11A22CD
:10172000724B1A70724B1A70724B1A704022724BC5
:101730001A70724B1A70724B1A7013291BD2DFE8A1
:1017400001F05588BA6A747E609CA6B092EBF7F5FA
:10175000E10A1B2C4400644A127842F00102624BF9
:101760001A701A46127842F002021A7019225F4B60
:101770001A705F4B1A70EFE05B4A127842F0020277
:10178000594B1A701A46127842F004021A70192244
:10179000574B1A70574B1A70DEE0534A127842F0DA
:1017A0000102514B1A701A46127842F002021A7066
:1017B0001A46127842F004021A7019224B4B1A7022
:1017C0004B4B1A704B4B1A70C6E0474A127842F0E6
:1017D0000102454B1A701A46127842F004021A7040
:1017E0001922424B1A70434B1A70B5E03E4A1278E8
:1017F00042F001023C4B1A7019223C4B1A70ABE0CC
:10180000ABE0394A127842F00102374B1A701922C4
:10181000364B1A70A0E0344A127842F00102324B83
:101820001A702922314B1A7096E02F4A127842F032
:1018300001022D4B1A7049222C4B1A708CE02A4A57
:10184000127842F00102284B1A708922274B1A7035
:1018500082E0254A127842F00202234B1A701922C4
:10186000234B1A7078E0204A127842F002021E4B95
:101870001A7019221E4B1A706EE01B4A127842F041
:101880000202194B1A702922194B1A7064E0164A89
:10189000127842F00202144B1A704922144B1A704B
:1018A0005AE0114A127842F002020F4B1A70892254
:1018B0000F4B1A7050E00C4A127842F004020A4BA7
:1018C0001A7019220B4B1A7046E01BE03F000020F3
:1018D000400000204300002044000020450000207C
:1018E0004600002047000020420000203900002070
:1018F0003A0000203B0000203C0000203D0000207A
:101900003E000020E44A127842F00402E24B1A70D2
:101910001922E24B1A701FE0DF4A127842F00402EB
:10192000DD4B1A702922DD4B1A7015E00AE0FFE743
:10193000D94A127842F00402D74B1A704922D74B89
:101940001A7009E0D44A127842F00402D24B1A709D
:101950008922D24B1A7000BF9CE1062874D11A224A
:10196000CF4B1A70CF4B1A70CC4B1A700022CE4B53
:101970001A70CE4B1A70CE4B1A70122913D2DFE8B0
:1019800001F009131D27313B454F59646E78828C55
:1019900096A0AAB4C04A127842F00102BE4B1A7057
:1019A0000E22C14B1A70AAE0BB4A127842F0010223
:1019B000B94B1A700C22BC4B1A70A0E0B64A1278D0
:1019C00042F00102B44B1A700A22B74B1A7096E02B
:1019D000B14A127842F00102AF4B1A700B22B24B9F
:1019E0001A708CE0AC4A127842F00102AA4B1A70CD
:1019F0000D22AD4B1A7082E0A74A127842F0010224
:101A0000A54B1A700922A84B1A7078E0A24A1278E6
:101A100042F00202A04B1A700E22A44B1A706EE024
:101A20009D4A127842F002029B4B1A700C229F4B87
:101A30001A7064E0984A127842F00202964B1A70CB
:101A40000A229A4B1A705AE05AE0934A127842F0EE
:101A50000202914B1A700B22944B1A704FE08E4A7F
:101A6000127842F002028C4B1A700D228F4B1A70C2
:101A700045E0894A127842F00202874B1A70092227
:101A80008A4B1A703BE0844A127842F00402824B7F
:101A90001A700E22864B1A7031E07F4A127842F09B
:101AA00004027D4B1A700C22814B1A7027E07A4A8F
:101AB000127842F00402784B1A700A227C4B1A709A
:101AC0001DE0754A127842F00402734B1A700B2223
:101AD000774B1A7013E0704A127842F004026E4B92
:101AE0001A700D22724B1A7009E06B4A127842F09C
:101AF0000402694B1A7009226D4B1A7000BFC9E0CD
:101B0000072832D11A22664B1A70664B1A70634B43
:101B10001A700022644B1A70644B1A70644B1A706E
:101B200021B101290CD002291ED113E05A4A1278A2
:101B300042F00102584B1A7010225B4B1A7013E0EE
:101B4000554A127842F00202534B1A701022574B3A
:101B50001A7009E0504A127842F004024E4B1A7093
:101B60001022534B1A7000BF94E0082848D11A2263
:101B70004B4B1A704B4B1A70484B1A7000224A4B51
:101B80001A704A4B1A704A4B1A7089B9424A127835
:101B900042F00102404B1A701A46127842F00202DB
:101BA0001A702022404B1A701022404B1A7071E0BC
:101BB000012911D1384A127842F00102364B1A70CD
:101BC0001A46127842F004021A702022364B1A701C
:101BD0001022374B1A705DE002295BD12E4A127831
:101BE00042F002022C4B1A701A46127842F004029C
:101BF0001A7020222D4B1A7010222D4B1A7049E0BA
:101C0000092847D11A22264B1A70264B1A70234BEB
:101C10001A700022244B1A70244B1A70244B1A702D
:101C2000052936D2DFE801F0030D17212B001A4AEF
:101C3000127842F00202184B1A7030221B4B1A70B5
:101C400027E0154A127842F00402134B1A70302232
:101C5000174B1A701DE0104A127842F001020E4B29
:101C60001A703022104B1A7013E00B4A127842F0AF
:101C70000102094B1A7030220B4B1A7009E0064A18
:101C8000127842F00202044B1A703022074B1A708D
:101C900000BF00BF70470000420000203B00002052
:101CA000390000203A0000203C0000203D000020C8
:101CB0003E000020002006490870064908700649C9
:101CC0000870064908700649087006490870704790
:101CD0003F00002040000020410000204300002081
:101CE0004400002045000020002107E0002201E020
:101CF00000BF521CB2F5A06FFADB491C8142F5DB34
:101D00007047002107E042F6E06100BF0A1EA1F122
:101D1000010399B2FAD1021EA0F1010398B2F2D1E7
:101D20007047000030B50446254603E00120FFF768
:101D3000DBFF6D1E0248007808B9002DF6D130BDDA
:101D40001400002008B51020ADF8000004208DF824
:101D5000030003208DF8020069460248FEF760FB8D
:101D600008BD000000100140002401F019F801F046
:101D700057F901F0EDF8FFF7C9F900F0E5FEFFF7BC
:101D8000E1FF01F06FF8FEF715FF4020FEF7C4FAFF
:101D9000FEF758FA00BF06E00020F5490855F5495E
:101DA0000855601C84B2B4F5006FF5DB0020F249E1
:101DB0000870F249087000222021F148FEF728FC43
:101DC00001221146EF48FEF723FC4FF49670FFF70F
:101DD0008BFF00222021EA48FEF71AFC0022012195
:101DE000E848FEF715FC4FF49670FFF77DFF0122DF
:101DF0002021E348FEF70CFC01221146E148FEF7E2
:101E000007FC4FF49670FFF76FFF00222021DC489B
:101E1000FEF7FEFB00220121DA48FEF7F9FB4FF442
:101E20009670FFF761FF01222021D548FEF7F0FBF5
:101E300001221146D348FEF7EBFB4FF49670FFF7F3
:101E400053FF00222021CE48FEF7E2FB00220121B1
:101E5000CC48FEF7DDFBAC2000F046FF10B1FF20C0
:101E6000C949087001222021C548FEF7D1FB012293
:101E70001146C448FEF7CCFB4FF49670FFF734FFD1
:101E800000222021BE48FEF7C3FB00220121BD48ED
:101E9000FEF7BEFBA32000F027FF10B1FF20BA49D8
:101EA000C87001222021B648FEF7B2FB012211467C
:101EB000B448FEF7ADFB4FF49670FFF715FF002214
:101EC0002021AF48FEF7A4FB00220121AD48FEF718
:101ED0009FFBA22000F008FF10B1FF20AA49087163
:101EE00001222021A648FEF793FB01221146A548B6
:101EF000FEF78EFB4FF49670FFF7F6FE00222021CE
:101F00009F48FEF785FB002201219E48FEF780FBDB
:101F1000A12000F0E9FE10B1FF209B494871642028
:101F2000FFF7E2FE00241BE0012220219448FEF787
:101F30006FFB012211469348FEF76AFB6420FFF70E
:101F4000D3FE002220218E48FEF762FB00220121F1
:101F50008C48FEF75DFB6420FFF7C6FE601C84B270
:101F60000A2CE1DB4FF49670FFF7BEFE012211460A
:101F70008448FEF74DFB9EE200F0CCFFFEF7A6FB87
:101F80007D480078002873D000207B4908707F4886
:101F900000787F4908700846007800B9EBE7002414
:101FA00005E07C48005D7C490855601C84B2784897
:101FB00000788442F5DB78480078784908707648E4
:101FC0004078487074488078887073480079724906
:101FD000C97800EB012071498880002407E06E4930
:101FE000601D095C6D48801D0155601C84B26B4802
:101FF0008088A042F3DC66480078401E6649085C91
:10200000664981F8060162480078401E81B2614845
:10201000FFF71EFA614991F80611884200D0AAE73D
:102020005F48007818B15D4840780F2835D100200E
:102030005C4908700F205C49087000204870062039
:1020400088700020C87006200871002406E04E4801
:10205000015D554A601D1154601C84B2062CF6DBEC
:102060000B215148FFF7F4F94F49C87200240EE0E4
:10207000DCE24D48015D4D48FFF70DF800BF8021BF
:102080004A48FEF73AFF0028F9D0601C84B20C2CB5
:10209000EFDB6420FFF728FE6DE7404880780428D6
:1020A00017D03E488078052813D000240DE03A4828
:1020B000015D3E48FEF7EFFF00BF80213B48FEF781
:1020C0001CFF0028F9D0601C84B23148007884429B
:1020D000EDDB3248807803280AD03048807838B168
:1020E0002E488078012803D02C488078022808D117
:1020F000FF202049087048708870C87004202C495F
:10210000088026488078022813D11F48807870B351
:10211000062027490880002405E01B48005D15497A
:102120000855601C84B2062CF7DB0020214908709A
:1021300021E71A48807803283ED113488078B0B14F
:102140001148807815494978884235D006201849C9
:102150000880002405E00C48005D06490855601C15
:1021600084B2062CF7DB00201249087003E723E055
:102170005000002050040020270000201400002000
:1021800000100140000C01402C000020280000201D
:1021900029000020500C0020500D0020500E00207F
:1021A0002B00002033000020500800200044004095
:1021B0002000002036000020FE488078042871D1DD
:1021C000FD488078FF280DD10620FC4908800024B6
:1021D00005E0F948005DFA490855601C84B2062CF8
:1021E000F7DB0EE0F748007858B1FF20F44908709B
:1021F00048708870C8700420F04908800020F149B8
:102200000870EC484078F0490870002048708870E9
:10221000EA490888C11700EB1161090AEA4AD1703E
:10222000E6490888C11700EB11610912A0EB0121F2
:102230001171002406E0E248015DE34A601D11547B
:10224000601C84B2DD4800888442F4DBDB480088EF
:10225000401D81B2DC48FFF7FBF8DB4AD74909880B
:10226000491D505400240DE0D748015DD748FEF7C2
:1022700012FF00BF8021D548FEF73FFE0028F9D0AD
:10228000601C84B2CD480088801D8442ECDB0420B1
:10229000CA490880FF20CA49087048708870C87011
:1022A00069E6FFE7C3488078012841D0C1488078BB
:1022B00005283DD0BF484078082807D0BD48407861
:1022C000092803D0BB4840780A2831D100240DE00A
:1022D000BF48015DBF48FEF7DEFE00BF8021BD485C
:1022E000FEF70BFE0028F9D0601C84B2BA480078D3
:1022F0008442EDDBAF48807802280BD1AD484078AE
:10230000AD4988700120AF490870AA484078AA49B1
:1023100088700CE0A7488078032808D10020A649DF
:1023200088700120A74908700020A3498870F0E355
:10233000A0488078C8B9A04880789E4949788842EA
:1023400013D100240CE09B4A921D115D9A4A9278A9
:10235000D21EA24B13F81200FEF7C0FF601C84B21D
:1023600094488088A042EEDCD3E39248807802282B
:1023700070D19B48007800286CD08E4840788E49F8
:10238000887001208F4908708A484078042806D058
:10239000052839D006286DD0072834D17AE080216D
:1023A0009048FEF715F9A0B100218F48FEF787FC91
:1023B000012202218D48FEF72BF9012280218C4851
:1023C000FEF726F904207C49887001207D490870B9
:1023D00019E001218448FEF772FC0122082183489C
:1023E000FEF716F9002202218048FEF711F90024B9
:1023F00001E0601C84B2642CFBDBFF206E49887016
:1024000000207049087055E040217648FEF7E0F85A
:10241000A0B100217448FEF752FC0122022173484A
:10242000FEF7F6F8012251027148FEF7F1F8052097
:10243000614988700120634908701AE00022022176
:102440006A48FEF7E5F8002208216848FEF7E0F840
:10245000002402E030E0601C84B2642CFBDB01212C
:102460006148FEF72CFCFF20534988700020554935
:1024700008701FE0012211025D48FEF7C9F8012231
:1024800051025848FEF7C4F80122D1025548FEF720
:10249000BFF80FE0012211025248FEF7B9F80122FD
:1024A00091025048FEF7B4F8012211034D48FEF79F
:1024B000AFF800BF00BF2CE33E488078032848D126
:1024C0003C484078042806D005280AD006280FD0BA
:1024D000072833D11FE0002280214548FEF798F8F5
:1024E0002CE000224FF400714148FEF791F825E0FE
:1024F00000224FF480713E48FEF78AF800224FF424
:1025000000713848FEF784F800224FF40061354826
:10251000FEF77EF812E000224FF480713148FEF79A
:1025200077F800224FF480612E48FEF771F8002200
:102530004FF480512B48FEF76BF800BF00BF00201E
:102540001D49887001201F49087000201A498870B1
:10255000DFE21848807801287ED12648007800B153
:10256000D7E21448407809284BD100240DE01848E0
:10257000015D1848FEF78FFD00BF80211548FEF76A
:10258000BCFC0028F9D0601C84B213480078844257
:10259000EDDB01201849087006488079052807D02E
:1025A00004488079062803D002488079072825D17D
:1025B000AFE20000500E00202C0000202000002080
:1025C0005004002036000020500800200044004045
:1025D000500D00200038014029000020F430000890
:1025E0002B000020000801400004004000140140BE
:1025F0000010014043000020340000206420FFF759
:1026000080FBF948807830B1F8484078F6498978FD
:10261000884200D07DE2F5488079122807D1F3483E
:102620004078062803D10120F149087008E1002014
:10263000EF490870ED4A91795078FEF757FFEA4864
:102640004079FF2809D0EB48007800F0010020B164
:102650000020E9490870F3E027E0E3480079FF280B
:1026600008D0E4480078C0F3400018B10020E249E7
:102670000870E5E0DC48C078FF2808D0DD48007825
:10268000C0F3800018B10020DB490870D8E0D648BC
:102690000078FF28CAD0D7480078C0F3401000283F
:1026A000C4D00020D4490870CAE0D04880780528FA
:1026B000BCD1CD488078A0B3CC484078CA4989784D
:1026C00088422FD00F20CD49087000204870062086
:1026D00088700020C87006200871002406E0C248F7
:1026E000015DC64A601D1154601C84B2062CF6DBE5
:1026F0000B21C248FEF7ACFEC049C87200240DE0B1
:10270000BE48015DBE48FEF7C6FC00BF8021BC4844
:10271000FEF7F3FB0028F9D0601C84B20C2CEFDB31
:102720008EE0FFE7B7480078C0B1B6480078401C9B
:10273000B4490870084600780A2808DD00200870AF
:10274000AA4948780022114600F082FA78E0A749A9
:102750004878FF22114600F07BFA71E0A448007827
:1027600090B11021A848FDF733FF30B99F49487850
:10277000FF22114600F06CFA62E09C494878002282
:10278000114600F065FA5BE097484079FF2810D0C9
:102790009848007800F0010058B194494878E12247
:1027A000EE2100F055FA002093490870974908700F
:1027B000AFE18D480079FF2810D08E480078C0F333
:1027C000400058B189494878E222EE2100F040FAF1
:1027D0000020894908708D4908709AE18248C078C4
:1027E000FF2810D083480078C0F3800058B17F499B
:1027F0004878E322EE2100F02BFA00207E49087091
:102800008249087085E178480078FF2810D079481F
:102810000078C0F3401058B174494878EB22EE219B
:1028200000F016FA0020744908707849087070E1C9
:1028300077480278774801787748007800F008FAFE
:102840006D48007890B37548007878BB744800787C
:10285000A0B901207249087063484079FF284AD125
:102860007048037870480278084601786A48007812
:10287000FEF704FE0120694908703CE068480078D2
:10288000012814D102206649087057480079FF28B2
:1028900031D16648037866480278084601785E4878
:1028A0000078FEF7EBFD01205C49087023E05C48EE
:1028B0000078022814D10320594908704A48C0788A
:1028C000FF2818D15B4803785B48027808460178F6
:1028D00051480078FEF7D2FD0120504908700AE007
:1028E0004F480078032806D100204A49087048491B
:1028F0000870FFF7DFF94948007870B14F48007859
:1029000058B94F48007840B94548017842480078A6
:10291000FEF76EFD0120494908704A480078A8B3C7
:102920000020484908704848008848490880002429
:1029300005E04748005D47490855601C84B242489D
:1029400000888442F5DB3D480078F8B100203B491F
:10295000087040484079FF2818D03E488079FF2809
:1029600014D02F48007801281CD13A4840792E49CC
:10297000097888420BD1374880792A49097801F0D3
:102980003F01884203D100202449087084E0314887
:102990004079204908702F4880791D490870FFF759
:1029A00089F979E01E480078022855D129484079F4
:1029B0001F49097888420BD1264880791B4909783C
:1029C00001F03F01884203D100201449087063E000
:1029D000204840790F4908701E4880790C490870DA
:1029E000FFF768F958E000002C000020500E00208E
:1029F0003500002042000020430000205008002045
:102A00000044004034000020001001404A00002033
:102A10004700002046000020400000204400002025
:102A20003F0000203C000020390000203D00002035
:102A30003A0000203E0000203B000020450000201E
:102A400041000020140000201E0000202000002073
:102A500050000020500400202F48007803281BD18C
:102A60002E4840792E49097888420BD12B4880792D
:102A70002C49097801F03F01884203D100202A49FE
:102A8000087009E025484079284908702348807972
:102A900027490870FFF70EF926480078C0B30020D8
:102AA000244908702448008806281DDD23488078C2
:102AB000062819D122480078112808D120484078EA
:102AC0000A2804D11E488078592800D121E01C48EA
:102AD0000078112808D11A4840780A2804D11848EB
:102AE00080785A2800D114E01348008800B910E01B
:102AF0001148008813490880002405E01048005D53
:102B000006490855601C84B20B4800888442F5DBF6
:102B100000BFFFF731BA00003F0000205004002042
:102B20003B0000203E000020440000204600002022
:102B300047000020260000201E0000202C0000205E
:102B4000500000202000002008B50120ADF8000052
:102B500014208DF8030003208DF8020069463848E0
:102B6000FDF75EFC2020ADF8000014208DF8030076
:102B700003208DF8020069463248FDF751FC4FF4FE
:102B80006070ADF8000010208DF8030003208DF870
:102B9000020069462B48FDF743FC002280212948AA
:102BA000FDF736FD00224FF480712648FDF730FD19
:102BB00000224FF400712348FDF72AFD4FF4F8502E
:102BC000ADF8000010208DF8030003208DF80200FE
:102BD00069461D48FDF724FC00224FF480711A4815
:102BE000FDF716FD00224FF400711748FDF710FDA8
:102BF00000224FF480611448FDF70AFD00224FF4D3
:102C000000611148FDF704FD00224FF480510E4889
:102C1000FDF7FEFC002220210A48FDF7F9FC012205
:102C200011460748FDF7F4FC8020ADF800000420B1
:102C30008DF8030069460548FDF7F2FB08BD00006A
:102C4000000C014000100140000801400018014044
:102C50007CB506460C4615468DF8006000208DF8C0
:102C6000010007208DF8020000208DF803000220EB
:102C70008DF804008DF805408DF806500721684650
:102C800000F002F87CBD00002DE9F04106468846C0
:102C90000025002400BF0EE0705D0444715D114802
:102CA000FEF7F9F900BF80210E48FEF726F900284B
:102CB000F9D0681CC5B24545EEDB2746E01704EBAA
:102CC00010600012A4EB0020C1B20648FEF7E3F941
:102CD00000BF80210348FEF710F90028F9D0BDE8B5
:102CE000F08100000044004010B50446002029494E
:102CF000087021462848FEF7CEF900BF80212648FB
:102D0000FEF7FBF80028F9D021462348FEF7C3F967
:102D100000BF80212048FEF7F0F80028F9D04FF4DA
:102D2000FA70FEF7FFFF1B48007820B10020194918
:102D30000870012010BD012211461848FDF768FCFB
:102D400021461548FEF7A7F900BF80211248FEF77B
:102D5000D4F80028F9D021460F48FEF79CF900BFAF
:102D600080210D48FEF7C9F80028F9D04FF4FA7019
:102D7000FEF7D8FF002201210848FDF749FC05486D
:102D8000007820B10020034908700120D2E700201C
:102D9000D0E700001400002000380140000C014082
:102DA00010B501217D20FDF727FD4FF4E060FDF710
:102DB0006FFC10BD1FB501211020FDF71DFD402047
:102DC000ADF8000048208DF8030069461248FDF771
:102DD00027FB01210846FDF70FFD06210220FDF724
:102DE000FFFA4020029000208DF80C000C208DF896
:102DF0000D0001208DF80E0002A8FDF7A7FA17209C
:102E00008DF8040001208DF806008DF8070001A858
:102E1000FDF706FC1FBD00000010014010B5104C6E
:102E2000B4F1807F01D3012011E024F07F40401EE7
:102E30004FF0E02148610F214FF0FF30FDF732FCE9
:102E400000204FF0E021886107200861002008B1D0
:102E500000BFFEE70021481EFDF724FC10BD000066
:102E60004019010000B585B001210220FDF7B4FC36
:102E70004FF47A70ADF80C004720ADF80800002040
:102E8000ADF80E00ADF80A0002A91F48FDF73EFF9D
:102E9000012211461C48FDF72FFF1D208DF804006C
:102EA00000208DF8060001208DF8070001A8FDF72D
:102EB000B7FB00211448FDF702FFC020ADF8000069
:102EC00004208DF8030003208DF8020069460F48A6
:102ED000FDF7A6FA0E20ADF8000010208DF80300D3
:102EE00003208DF8020069460948FDF799FA064863
:102EF0000088002004490880012202210448FDF7CF
:102F000087FB05B000BD0000000400400008014040
:102F10000014014010B50B48007888B10A480078C9
:102F200008B9012000E0002007490870084602782F
:102F30004FF480710548FDF76BFB002001490870D4
:102F400010BD00004800002037000020000C0140A8
:102F500000B587B001210820FDF74EFC0121880350
:102F6000FDF74AFC01210846FDF746FC012104203B
:102F7000FDF7E2FA06A8FDF741FB4020ADF8180086
:102F800018208DF81B0001208DF81A0006A9224890
:102F9000FDF746FA8020ADF8180004208DF81B00DC
:102FA00001208DF81A0006A91B48FDF739FA02A87E
:102FB000FEF775F84FF4E13002900020ADF80C00F8
:102FC000ADF80E00ADF810000C20ADF81200002096
:102FD000ADF8140002A91148FDF7ECFF012240F200
:102FE00025510E48FDF7C0FF012240F224410B4855
:102FF000FDF7BAFF01210948FDF773FF25208DF881
:10300000040002208DF8060001208DF8070001A8B9
:10301000FDF706FB07B000BD000C01400038014081
:1030200000B587B001212020FDF7E6FB012148040F
:10303000FDF7D2FB01210846FDF7DEFB0121082048
:10304000FDF77AFA06A8FDF7D9FA2020ADF81800A6
:1030500018208DF81B0001208DF81A0006A92248BF
:10306000FDF7DEF94020ADF8180004208DF81B00B4
:1030700001208DF81A0006A91B48FDF7D1F902A816
:10308000FEF70DF84FF4E13002900020ADF80C008F
:10309000ADF80E00ADF810000C20ADF812000020C5
:1030A000ADF8140002A91148FDF784FF012240F297
:1030B00025510E48FDF758FF012240F224410B48EC
:1030C000FDF752FF01210948FDF70BFF26208DF87F
:1030D000040003208DF8060001208DF8070001A8E8
:1030E000FDF79EFA07B000BD001401400044004007
:1030F000FFFFFFFF00001000200030000800180054
:103100002800380024310008000000205000000092
:1031100028010008743100085000002068150000E4
:10312000440100080000000001020304010203043E
:10313000060708090204060800000000000000005D
:103140000000000000000000FF010000000000007F
:10315000000000000000000000000000000000006F
:10316000000000000000000000000000000000005F
:04317000000000005B
:04000005080000ED02
:00000001FF
